{
  "_format": "hh-sol-artifact-1",
  "contractName": "OracleVerifier",
  "sourceName": "contracts/OracleVerifier.sol",
  "abi": [
    {
      "inputs": [],
      "stateMutability": "nonpayable",
      "type": "constructor"
    },
    {
      "anonymous": false,
      "inputs": [
        {
          "indexed": false,
          "internalType": "uint256",
          "name": "newMaxAge",
          "type": "uint256"
        }
      ],
      "name": "MaxQuoteAgeUpdated",
      "type": "event"
    },
    {
      "anonymous": false,
      "inputs": [
        {
          "indexed": true,
          "internalType": "address",
          "name": "oracle",
          "type": "address"
        }
      ],
      "name": "OracleAdded",
      "type": "event"
    },
    {
      "anonymous": false,
      "inputs": [
        {
          "indexed": true,
          "internalType": "address",
          "name": "oracle",
          "type": "address"
        }
      ],
      "name": "OracleRemoved",
      "type": "event"
    },
    {
      "anonymous": false,
      "inputs": [
        {
          "indexed": false,
          "internalType": "uint256",
          "name": "newThreshold",
          "type": "uint256"
        }
      ],
      "name": "ThresholdUpdated",
      "type": "event"
    },
    {
      "inputs": [
        {
          "internalType": "address",
          "name": "oracle",
          "type": "address"
        }
      ],
      "name": "addOracle",
      "outputs": [],
      "stateMutability": "nonpayable",
      "type": "function"
    },
    {
      "inputs": [],
      "name": "maxQuoteAge",
      "outputs": [
        {
          "internalType": "uint256",
          "name": "",
          "type": "uint256"
        }
      ],
      "stateMutability": "view",
      "type": "function"
    },
    {
      "inputs": [],
      "name": "oracleCount",
      "outputs": [
        {
          "internalType": "uint256",
          "name": "",
          "type": "uint256"
        }
      ],
      "stateMutability": "view",
      "type": "function"
    },
    {
      "inputs": [],
      "name": "owner",
      "outputs": [
        {
          "internalType": "address",
          "name": "",
          "type": "address"
        }
      ],
      "stateMutability": "view",
      "type": "function"
    },
    {
      "inputs": [
        {
          "internalType": "bytes32",
          "name": "messageHash",
          "type": "bytes32"
        },
        {
          "internalType": "bytes",
          "name": "signature",
          "type": "bytes"
        }
      ],
      "name": "recoverSigner",
      "outputs": [
        {
          "internalType": "address",
          "name": "",
          "type": "address"
        }
      ],
      "stateMutability": "pure",
      "type": "function"
    },
    {
      "inputs": [
        {
          "internalType": "address",
          "name": "oracle",
          "type": "address"
        }
      ],
      "name": "removeOracle",
      "outputs": [],
      "stateMutability": "nonpayable",
      "type": "function"
    },
    {
      "inputs": [
        {
          "internalType": "uint256",
          "name": "_maxQuoteAge",
          "type": "uint256"
        }
      ],
      "name": "setMaxQuoteAge",
      "outputs": [],
      "stateMutability": "nonpayable",
      "type": "function"
    },
    {
      "inputs": [],
      "name": "threshold",
      "outputs": [
        {
          "internalType": "uint256",
          "name": "",
          "type": "uint256"
        }
      ],
      "stateMutability": "view",
      "type": "function"
    },
    {
      "inputs": [
        {
          "internalType": "address",
          "name": "",
          "type": "address"
        }
      ],
      "name": "trustedOracles",
      "outputs": [
        {
          "internalType": "bool",
          "name": "",
          "type": "bool"
        }
      ],
      "stateMutability": "view",
      "type": "function"
    },
    {
      "inputs": [
        {
          "internalType": "string",
          "name": "data",
          "type": "string"
        },
        {
          "internalType": "bytes[]",
          "name": "signatures",
          "type": "bytes[]"
        },
        {
          "internalType": "uint256",
          "name": "timestamp",
          "type": "uint256"
        }
      ],
      "name": "verify",
      "outputs": [
        {
          "internalType": "bool",
          "name": "isValid",
          "type": "bool"
        }
      ],
      "stateMutability": "view",
      "type": "function"
    }
  ],
  "bytecode": "0x608060405261012c60035534801561001657600080fd5b50600480546001600160a01b03191633179055610ba1806100386000396000f3fe608060405234801561001057600080fd5b506004361061009e5760003560e01c8063d1f75ffd11610066578063d1f75ffd1461010f578063db29660214610132578063ddccf70a14610155578063df5dd1a51461016a578063fdc85fc41461017d57600080fd5b806342cde4e8146100a3578063613d8fcc146100bf57806382106b46146100c85780638da5cb5b146100d157806397aba7f9146100fc575b600080fd5b6100ac60025481565b6040519081526020015b60405180910390f35b6100ac60015481565b6100ac60035481565b6004546100e4906001600160a01b031681565b6040516001600160a01b0390911681526020016100b6565b6100e461010a36600461086e565b610190565b61012261011d366004610929565b6102b5565b60405190151581526020016100b6565b6101226101403660046109f6565b60006020819052908152604090205460ff1681565b610168610163366004610a26565b610569565b005b6101686101783660046109f6565b6105ce565b61016861018b3660046109f6565b610717565b600081516041146101e85760405162461bcd60e51b815260206004820152601860248201527f496e76616c6964207369676e6174757265206c656e677468000000000000000060448201526064015b60405180910390fd5b602082810151604080850151606086015191517f19457468657265756d205369676e6564204d6573736167653a0a33320000000094810194909452603c84018790529192600091821a9190605c0160408051601f1981840301815282825280516020918201206000845290830180835281905260ff8516918301919091526060820186905260808201859052915060019060a0016020604051602081039080840390855afa15801561029e573d6000803e3d6000fd5b505050602060405103519450505050505b92915050565b600042828110156103085760405162461bcd60e51b815260206004820152601a60248201527f54696d657374616d7020697320696e207468652066757475726500000000000060448201526064016101df565b6003546103158483610a55565b11156103585760405162461bcd60e51b815260206004820152601260248201527113595cdcd859d9481a5cc81d1bdbc81bdb1960721b60448201526064016101df565b6002548410156103a25760405162461bcd60e51b81526020600482015260156024820152744e6f7420656e6f756768207369676e61747572657360581b60448201526064016101df565b60008467ffffffffffffffff8111156103bd576103bd610858565b6040519080825280602002602001820160405280156103e6578160200160208202803683370190505b5090506000805b868110156105575760006104838b8b8960405160200161040f93929190610a68565b604051602081830303815290604052805190602001208a8a8581811061043757610437610a7a565b90506020028101906104499190610a90565b8080601f01602080910402602001604051908101604052809392919081815260200183838082843760009201919091525061019092505050565b6001600160a01b03811660009081526020819052604090205490915060ff161561054e576000805b848110156104f657826001600160a01b03168682815181106104cf576104cf610a7a565b60200260200101516001600160a01b0316036104ee57600191506104f6565b6001016104ab565b508061054c578185858151811061050f5761050f610a7a565b6001600160a01b03909216602092830291909101909101528361053181610ade565b945050600254841061054c5760019650505050505050610560565b505b506001016103ed565b50600093505050505b95945050505050565b6004546001600160a01b031633146105935760405162461bcd60e51b81526004016101df90610af7565b60038190556040518181527f02943cf5efd4e6fa1c46fc861d36594fd3abf4603f8d8e756408c9f6320167849060200160405180910390a150565b6004546001600160a01b031633146105f85760405162461bcd60e51b81526004016101df90610af7565b6001600160a01b03811660009081526020819052604090205460ff16156106585760405162461bcd60e51b815260206004820152601460248201527313dc9858db1948185b1c9958591e48185919195960621b60448201526064016101df565b6001600160a01b0381166000908152602081905260408120805460ff1916600190811790915580549161068a83610ade565b9190505550600260015461069e9190610b1f565b6106a9906001610b41565b60028190556040519081527fadfa8ecb21b6962ebcd0adbd9ab985b7b4c5b5eb3b0dead683171565c7bfe1719060200160405180910390a16040516001600160a01b038216907e47706786c922d17b39285dc59d696bafea72c0b003d3841ae1202076f4c2e490600090a250565b6004546001600160a01b031633146107415760405162461bcd60e51b81526004016101df90610af7565b6001600160a01b03811660009081526020819052604090205460ff1661079c5760405162461bcd60e51b815260206004820152601060248201526f13dc9858db19481b9bdd08199bdd5b9960821b60448201526064016101df565b6001600160a01b0381166000908152602081905260408120805460ff1916905560018054916107ca83610b54565b919050555060026001546107de9190610b1f565b6107e9906001610b41565b60028190556040519081527fadfa8ecb21b6962ebcd0adbd9ab985b7b4c5b5eb3b0dead683171565c7bfe1719060200160405180910390a16040516001600160a01b038216907f9c8e7d83025bef8a04c664b2f753f64b8814bdb7e27291d7e50935f18cc3c71290600090a250565b634e487b7160e01b600052604160045260246000fd5b6000806040838503121561088157600080fd5b82359150602083013567ffffffffffffffff808211156108a057600080fd5b818501915085601f8301126108b457600080fd5b8135818111156108c6576108c6610858565b604051601f8201601f19908116603f011681019083821181831017156108ee576108ee610858565b8160405282815288602084870101111561090757600080fd5b8260208601602083013760006020848301015280955050505050509250929050565b60008060008060006060868803121561094157600080fd5b853567ffffffffffffffff8082111561095957600080fd5b818801915088601f83011261096d57600080fd5b81358181111561097c57600080fd5b89602082850101111561098e57600080fd5b6020928301975095509087013590808211156109a957600080fd5b818801915088601f8301126109bd57600080fd5b8135818111156109cc57600080fd5b8960208260051b85010111156109e157600080fd5b96999598505060200195604001359392505050565b600060208284031215610a0857600080fd5b81356001600160a01b0381168114610a1f57600080fd5b9392505050565b600060208284031215610a3857600080fd5b5035919050565b634e487b7160e01b600052601160045260246000fd5b818103818111156102af576102af610a3f565b82848237909101908152602001919050565b634e487b7160e01b600052603260045260246000fd5b6000808335601e19843603018112610aa757600080fd5b83018035915067ffffffffffffffff821115610ac257600080fd5b602001915036819003821315610ad757600080fd5b9250929050565b600060018201610af057610af0610a3f565b5060010190565b6020808252600e908201526d139bdd08185d5d1a1bdc9a5e995960921b604082015260600190565b600082610b3c57634e487b7160e01b600052601260045260246000fd5b500490565b808201808211156102af576102af610a3f565b600081610b6357610b63610a3f565b50600019019056fea2646970667358221220256d2f707ea422ddaf89602750c52e22de66453311956b639e78705ddf63b9d664736f6c63430008180033",
  "linkReferences": {},
  "deployedLinkReferences": {}
}