{
  "_format": "hh-sol-artifact-1",
  "contractName": "AssetTradingWithQuotes",
  "sourceName": "contracts/AssetTradingWithQuotes.sol",
  "abi": [
    {
      "inputs": [
        {
          "internalType": "address",
          "name": "_oracleVerifier",
          "type": "address"
        }
      ],
      "stateMutability": "nonpayable",
      "type": "constructor"
    },
    {
      "anonymous": false,
      "inputs": [
        {
          "indexed": true,
          "internalType": "address",
          "name": "user",
          "type": "address"
        },
        {
          "indexed": false,
          "internalType": "string",
          "name": "reason",
          "type": "string"
        }
      ],
      "name": "PriceRejected",
      "type": "event"
    },
    {
      "anonymous": false,
      "inputs": [
        {
          "indexed": true,
          "internalType": "address",
          "name": "user",
          "type": "address"
        },
        {
          "indexed": false,
          "internalType": "string",
          "name": "data",
          "type": "string"
        }
      ],
      "name": "PriceVerified",
      "type": "event"
    },
    {
      "inputs": [
        {
          "internalType": "string",
          "name": "data",
          "type": "string"
        },
        {
          "internalType": "uint256",
          "name": "timestamp",
          "type": "uint256"
        }
      ],
      "name": "calculateHash",
      "outputs": [
        {
          "internalType": "bytes32",
          "name": "message",
          "type": "bytes32"
        }
      ],
      "stateMutability": "pure",
      "type": "function"
    },
    {
      "inputs": [],
      "name": "oracleVerifier",
      "outputs": [
        {
          "internalType": "contract OracleVerifier",
          "name": "",
          "type": "address"
        }
      ],
      "stateMutability": "view",
      "type": "function"
    },
    {
      "inputs": [],
      "name": "owner",
      "outputs": [
        {
          "internalType": "address",
          "name": "",
          "type": "address"
        }
      ],
      "stateMutability": "view",
      "type": "function"
    },
    {
      "inputs": [
        {
          "internalType": "string",
          "name": "data",
          "type": "string"
        },
        {
          "internalType": "uint256",
          "name": "timestamp",
          "type": "uint256"
        },
        {
          "internalType": "bytes[]",
          "name": "signatures",
          "type": "bytes[]"
        }
      ],
      "name": "processPrice",
      "outputs": [],
      "stateMutability": "nonpayable",
      "type": "function"
    },
    {
      "inputs": [
        {
          "internalType": "address",
          "name": "_oracleVerifier",
          "type": "address"
        }
      ],
      "name": "setOracleVerifier",
      "outputs": [],
      "stateMutability": "nonpayable",
      "type": "function"
    }
  ],
  "bytecode": "0x608060405234801561001057600080fd5b5060405161069238038061069283398101604081905261002f91610062565b60018054336001600160a01b031991821617909155600080549091166001600160a01b0392909216919091179055610092565b60006020828403121561007457600080fd5b81516001600160a01b038116811461008b57600080fd5b9392505050565b6105f1806100a16000396000f3fe608060405234801561001057600080fd5b50600436106100575760003560e01c80631ac0a23f1461005c5780638da5cb5b1461008c578063dac6fd001461009f578063e4b16777146100c0578063edf098d8146100d5575b600080fd5b60005461006f906001600160a01b031681565b6040516001600160a01b0390911681526020015b60405180910390f35b60015461006f906001600160a01b031681565b6100b26100ad366004610364565b6100e8565b604051908152602001610083565b6100d36100ce3660046103b0565b61011e565b005b6100d36100e33660046103e0565b610190565b60008383836040516020016100ff93929190610487565b6040516020818303038152906040528051906020012090509392505050565b6001546001600160a01b0316331461016e5760405162461bcd60e51b815260206004820152600e60248201526d139bdd08185d5d1a1bdc9a5e995960921b60448201526064015b60405180910390fd5b600080546001600160a01b0319166001600160a01b0392909216919091179055565b6000805460405163d1f75ffd60e01b81526001600160a01b039091169063d1f75ffd906101c99089908990889088908b906004016104c2565b602060405180830381865afa1580156101e6573d6000803e3d6000fd5b505050506040513d601f19601f8201168201806040525081019061020a919061057d565b9050801561025a57336001600160a01b03167f835bc0207d5696689fcf34b1f00b27301e9cabac98d9fbce1d1c3c4db0d4ba38878760405161024d92919061059f565b60405180910390a2610313565b336001600160a01b03167fcae10387b9e92811567d1bdc4134aa602d3d4ddb3787476bbccc3972b52c9d126040516102c3906020808252601a908201527f496e76616c696420707269636520766572696669636174696f6e000000000000604082015260600190565b60405180910390a260405162461bcd60e51b815260206004820152601a60248201527f496e76616c696420707269636520766572696669636174696f6e0000000000006044820152606401610165565b505050505050565b60008083601f84011261032d57600080fd5b50813567ffffffffffffffff81111561034557600080fd5b60208301915083602082850101111561035d57600080fd5b9250929050565b60008060006040848603121561037957600080fd5b833567ffffffffffffffff81111561039057600080fd5b61039c8682870161031b565b909790965060209590950135949350505050565b6000602082840312156103c257600080fd5b81356001600160a01b03811681146103d957600080fd5b9392505050565b6000806000806000606086880312156103f857600080fd5b853567ffffffffffffffff8082111561041057600080fd5b61041c89838a0161031b565b909750955060208801359450604088013591508082111561043c57600080fd5b818801915088601f83011261045057600080fd5b81358181111561045f57600080fd5b8960208260051b850101111561047457600080fd5b9699959850939650602001949392505050565b82848237909101908152602001919050565b81835281816020850137506000828201602090810191909152601f909101601f19169091010190565b6060815260006104d6606083018789610499565b602083820381850152818683528183019050818760051b8401018860005b8981101561056457858303601f190184528135368c9003601e1901811261051a57600080fd5b8b01858101903567ffffffffffffffff81111561053657600080fd5b80360382131561054557600080fd5b610550858284610499565b9587019594505050908401906001016104f4565b5050809450505050508260408301529695505050505050565b60006020828403121561058f57600080fd5b815180151581146103d957600080fd5b6020815260006105b3602083018486610499565b94935050505056fea2646970667358221220572815a70c3d743e9107783b33b97abd728e4771a956d35089978aca32659ff164736f6c63430008180033",
  "linkReferences": {},
  "deployedLinkReferences": {}
}